:020000040800F2
:1000000000800120FD120008BD120008BF12000888
:10001000C1120008C3120008C51200080000000049
:10002000000000000000000000000000C7120008EF
:10003000C912000800000000CB120008CD12000811
:100040004513000845130008451300084513000830
:100050004513000845130008CF1200084513000897
:100060004513000845130008451300084513000810
:100070004513000845130008451300084513000800
:1000800045130008451300084513000845130008F0
:1000900045130008451300084513000845130008E0
:1000A00045130008451300084513000845130008D0
:1000B00045130008451300084513000845130008C0
:1000C00045130008451300084513000845130008B0
:1000D00045130008451300084513000845130008A0
:1000E0004513000845130008451300084513000890
:1000F0004513000845130008451300084513000880
:10010000451300084513000845130008451300086F
:10011000451300084513000845130008451300085F
:10012000451300084513000845130008451300084F
:10013000451300084513000845130008451300083F
:1001400000000000000000000000000000000000AF
:10015000451300084513000845130008451300081F
:10016000451300084513000845130008451300080F
:1001700045130008451300084513000845130008FF
:04018000451300081B
:1001840010B5054C237833B9044B13B10448AFF3CD
:1001940000800123237010BD7800002000000000BF
:1001A4000028000808B5034B1BB103490348AFF30B
:1001B400008008BD000000007C000020002800082A
:1001C400034613F8012B002AFBD1181A0138704793
:1001D40003685A004CBF43F0004323F00043184423
:1001E400704700BF2DE9F84329B34F1E0446154656
:1001F4003E464FF0000808EB060101EBD1714910AF
:1002040004EBC1094846FFF7E3FF0346C800083082
:100214008F42204409D0AB4209D8FFF7D9FF0138F7
:10022400A8420AD201F10108E5E7AB4205D98845A5
:1002340001D04E1EDFE74FF000094846BDE8F883C1
:10024400012807D0022807D0044B00280CBF184609
:100254000020704702487047024870471D09000893
:10026400210900082509000830B5234B83B0044652
:100274008D1E3BB301A92846AFF30080E8B1019974
:100284002A46FFF7AFFF0146B8B1FFF7A1FF4B685D
:10029400A064012B2CD0002B01F1040024DBFFF718
:1002A40097FF0023C4E913030368002B11DBFFF756
:1002B4008FFF2061002003B030BD0023092023619B
:1002C40003B030BD0D4B0E49C91AC910184601912F
:1002D400D6E7C3F30360FFF7B3FF0028206114BF20
:1002E4000020092003B030BD0123C4E91303DBE778
:1002F400002323610520DEE7000000003029000808
:10030400382A00080368DA0710B5044606D49B07A8
:1003140000F1480009D500F05BFC2368590709D5B2
:100324001A070ED5DB0613D510BD00F049FC23686F
:100334005907F5D404F1D00000F052FC23681A07E1
:10034400F0D404F5A87000F053FC2368DB06EBD46A
:1003540004F5E870BDE8104000F08EBC0920704739
:100364000346006800B11844704700BF704700BFDF
:1003740070B504460E46316C2046FFF775FF0546FE
:1003840088B9326C6261236932462146012098475C
:100394000828F0D0072806D12846316CFFF7E6FF7D
:1003A400301D00F001FC01F0E7FF00BF2DE9F0472C
:1003B4000D1DD0F80C80D0F81890074614460FCDC8
:1003C400ADF5727D0DF10C0CACE80F000FCDACE86F
:1003D4000F000FCDACE80F0095E80F0002AE4FF010
:1003E400000E8CE80F00C6F800E020E0336C7B615F
:1003F4004FF4F07231467AA801F0C5FF3B697AAA3E
:10040400394650469847889B73642146CDE9006974
:1004140005463B463A460120C0470446E0B94FF43E
:10042400F0727AA9304601F0AEFF082D1AD1316C72
:100434003846FFF719FF09345FFA84FA05460028A5
:10044400D4D0B36B73643A46CDE900693B464AF0B5
:1004540010010120C04700B1092528460DF5727D21
:10046400BDE8F087072DF7D12046316CFFF77EFFFA
:1004740003A800F099FB00BF406C7047F0B5CB6B4C
:100484000B6401F1040C0E460546BCE80F00F9B0FC
:1004940001AC0FC4BCE80F000FC4BCE80F000FC4CC
:1004A4009CE80F004FF0FF3784E80F00009706E048
:1004B4002B696A46294698470828044608D11099AA
:1004C4002846FFF7D1FE0028F2D0092079B0F0BD0C
:1004D4006846FFF717FF062CF7D131462846FFF789
:1004E40047FF00BFC160D96B8261196400221946BD
:1004F4005CE700BF70B5C66843690B64AEB90369B5
:100504000A4604460D46014602209847072805D0AE
:1005140008280FD129462046FFF72AFF3046296CC8
:10052400FFF724FF281D00F03FFB0122FFF73EFFE9
:1005340001F022FF01F020FFC2681AB1CA6B0A64FD
:10054400002233E79AE700BF704700BF8368014683
:100554000BB1012018477047012912D009D873B98B
:100564000F2A0CD800EB820218465368009A1360D5
:1005740070470339012994BF0120022070470220EB
:1005840070470846704700BF00B585B00A4600238F
:1005940003A900911946FFF7DFFF039805B05DF842
:1005A40004FB00BF012912D009D873B90F2A0CD853
:1005B40000EB8200009A12684260184670470339C3
:1005C400012994BF01200220704702207047084689
:1005D400704700BF10B584B0002303AC03920094AD
:1005E4000A461946FFF7DEFF04B010BD70B5D36BA1
:1005F400136402F1040C05460C46BCE80F00ADF58B
:100604000E7D0DF15C0EAEE80F00BCE80F00AEE805
:100614000F00BCE80F00AEE80F009CE80F004FF09D
:10062400FF368EE80F00169610E0FFF7D3FF214641
:1006340016A8A847034616AA6946082083B9049B4E
:100644009847052806460CD0092809D026996846FB
:10065400FFF70AFE03466A460C2116A8002BE4D0D5
:10066400092616A8FFF74EFE30460DF50E7D70BD27
:100674002DE9F04FCC6C89B01E4654F8043B069427
:100684000D46174600F00308002E79D01A0C1B04FF
:1006940005938DF81D200223D2B204EB82048DF859
:1006A4001C302B6DB8F1020F08BFAC6B13F00103C3
:1006B4000CD005A9384600F079FB18B9082009B018
:1006C400BDE8F08F092009B0BDE8F08FD4F800A090
:1006D400BAF1000FEDD0019300F008030293022E4B
:1006E4004AD0B4F800A0B4F802900434AB6C29F0FA
:1006F400010B0F2138469B44FFF746FF834539D849
:100704002AF001039B44834594BF002001204FEA53
:10071400490303F002030AF0010A43EA0A03012B26
:1007240049D0022B32D0002BCCD1B8F1000F02D02B
:10073400002840F0CD800434D4F800A0BAF1000FB2
:10074400CDD105A9384600F031FB0028BAD1019B70
:10075400002BB3D00F213846FFF716FF0E210246B7
:100764003846FFF737FF38466A4A0F21FFF732FF52
:100774000720A8E70020CAE7D4F804900834B5E7B6
:100784001B0205930323ADF81C308AE7236823F08A
:10079400004BB8F1000F45D128B1029A002A5CD071
:1007A400BBF1000F74D0002B00DA04340BF1010B01
:1007B40004EB8B04C0E7B8F1000F19D1B0B1636842
:1007C4002268991C4FEAD2723FF47CAF05F15801BC
:1007D4000133049100F09080201DFFF7C1FD04ABAC
:1007E40001462846AFF3008000285BD10834A3E714
:1007F4000D213846D5F82090FFF7C6FE8145F5D186
:10080400AB6A9C42F2D12046FFF7E2FC0F2102467C
:100814003846FFF7DFFE38462A460021FFF7DAFEA6
:10082400072050E70D213846D5F82090FFF7ACFE9D
:10083400814501D02368B6E7AB6A9C42FAD1042310
:100844000022C5E90B23E318C5F828B06B632368BD
:10085400002B59DB01230193A8E705F15803CDF8D8
:100864000C8004F1040AB04691461E460EE0504640
:100874000496FFF775FD0022014604AB284609F1F2
:1008840001090AF1040AAFF30080E0B9D945EED1B9
:100894000D213846FFF778FE049BAC62C5E90803D6
:1008A400062010E781460D213846FFF76DFEB9F1A9
:1008B400020F286225D12B46049A43F82C2F6B6231
:1008C400AC620620FFE646462368DDF80C806AE742
:1008D4002046FFF77DFC04340246AC6328461446E8
:1008E400AFF3008000283FF4EDAE384622460F21D6
:1008F400FFF770FE0720E6E60D213846FFF744FEB9
:100904002862049B6B62DBE70BF1010004EB8000BF
:100914007AE700BF000000000023A9E60123A7E650
:100924000223A5E62DE9F0430646C3B015461C464E
:10093400042900F2BF80DFE801F09E57BD2D0300BB
:10094400002C40F0B780102A00F2B4800368D80667
:1009540000F1F98020AF384600F098F9B46B3946BD
:1009640000234FF0010C0CFA03F22A42204603F153
:10097400010303D050F8042B0A600446042B01F150
:100984000401F0D13846B46300F076F9002043B096
:10099400BDE8F083032C40F08D8094B204EB124345
:1009A400102B4FEA124500F2858003681F0700F1FF
:1009B400D28020AF384600F03DF9B26B07EBC50199
:1009C40054B10B46D01A01EBC401E4001D5843F89E
:1009D400045B8B42FAD122443846B26300F008F932
:1009E400002043B0BDE8F083012C4FEA124895B2D1
:1009F4005CD0052C5ED108EB0509B9F1200F59D85C
:100A0400B8F10F0F79D9A946002D40F08A80B36B55
:100A14006DB320AF4FF0000907EBC807043F03EBA9
:100A2400C50553F8041B47F8041FAB42F9D1B9F1CB
:100A3400000F0FD06F464146102938BF102107EB35
:100A4400C101843903EBC90553F8040B41F8040FC1
:100A5400AB42F9D1012C00F08680B8F10F0FB563D9
:100A640047D9B9F1000F02D0684600F0B9F8002068
:100A740043B0BDE8F083ECB9806B23461FFA82FCD7
:100A84000124371D04FA03F212EA0C0F014604D0C4
:100A940051F8042B47F8232008460133102BF1D1D9
:100AA40015F40055E3D1B063284604E008EB0503D0
:100AB400102B03D9022043B0BDE8F083B8F10F0F27
:100AC400F8D83368DA0706D5304623F0030340F834
:100AD400483B00F079F820AF384600F075F8B36B66
:100AE400002D97D11D460435B563384600F068F8EB
:100AF400BDE720A800F06CF8B3E7B9F1100F40D9B6
:100B0400A9F110093368D90708D523F00103304649
:100B140043F0020340F8483B00F05EF8B9F1000FDF
:100B240032D033685A0720D4B8F10F0F25D96F4655
:100B34003846C8F1100500F057F8002DB36B7FF765
:100B44007AAF20AF68E723F01003336006F5E8704E
:100B540000F09CF8FEE623F00803036000F5A8709B
:100B640000F068F825E720AFBDE7304623F0040322
:100B740040F8D03B00F038F8D6E720A800F02CF875
:100B8400D5E74FF00009BDE7B8F10F0F3FF63FAFCF
:100B940020AF384600F020F8B36B002D7FF43AAF55
:100BA400384600F015F862E700F1340191E83800A6
:100BB4009C46A6464CF8045D90E8FF0FE54600BD50
:100BC40090EC210B704700BF80EC210B704700BFF5
:100BD40090EC200B704700BF80EC200B704700BFE7
:100BE400D0EC200B704700BFC0EC200B704700BF57
:100BF400F0EC0201F0EC0211F0EC0221F0EC023115
:100C0400F0EC0241F0EC0251F0EC0261F0EC027104
:100C1400F0EC0281F0EC0291F0EC02A1F0EC02B1F4
:100C2400F0EC02C1F0EC02D1F0EC02E1F0EC02F1E4
:100C3400704700BFE0EC0201E0EC0211E0EC02219D
:100C4400E0EC0231E0EC0241E0EC0251E0EC026144
:100C5400E0EC0271E0EC0281E0EC0291E0EC02A134
:100C6400E0EC02B1E0EC02C1E0EC02D1E0EC02E124
:100C7400E0EC02F1704700BFB0FC0181B0FC0191CF
:100C8400B0FC01A1B0FC01B1704700BFA0FC018120
:100C9400A0FC0191A0FC01A1A0FC01B1704700BF20
:100CA400EC4600B52DE900502DE9FF1F4FF000037D
:100CB4002DE90C0001A9FFF7E1FBDDF840E012B0DB
:100CC400704700BFEC4600B52DE900502DE9FF1F29
:100CD4004FF000032DE90C0001A9FFF70BFCDDF830
:100CE40040E012B0704700BFEC4600B52DE900505B
:100CF4002DE9FF1F4FF000032DE90C0001A9FFF7B8
:100D04001BFCDDF840E012B0704700BFEC4600B5B4
:100D14002DE900502DE9FF1F4FF000032DE90C00D1
:100D240001ABFFF7DFFBDDF840E012B0704700BF16
:100D3400EC4600B52DE900502DE9FF1F4FF00003EC
:100D44002DE90C0001AAFFF751FCDDF840E012B0D8
:100D5400704700BF027A03467AB9427AA2B1416869
:100D6400013A10B44272086803220C1D1A7202027E
:100D74005C60000E10BC1A6070470068013A1A7279
:100D840002021A60000E7047B020704700B585B0AB
:100D9400002303AA009219460C22FFF7DDFB0398F7
:100DA40005B05DF804FB00BFF0E700BF2DE9F04398
:100DB400054685B00E464FF000083046FFF7CAFFDF
:100DC400B028044600F0BA80070620D500F0F003EE
:100DD400802B4DD0902B36D0A02B60D0B02B74D06C
:100DE400C02B00F08B8000F0F803D02B0BD100F067
:100DF40007020132052342F4002201212846FFF7AD
:100E040091FD0028D9D0092005B0BDE8F083830006
:100E1400DBB21F1D0DF10C0900231946CDF800901B
:100E24000D222846FFF798FB039BCDF8009060063F
:100E34004CBFDF1BFF1800230D22194628460397D9
:100E4400FFF7B0FBB9E700F00D030D2BDBD003AFC8
:100E5400002300F00F02194600972846FFF77CFB99
:100E6400002300970D2219462846FFF79BFBA4E7B1
:100E74003046FFF76FFF24022043B0F5004FC2D085
:100E840004010023A2B219462846FFF74BFD0028AF
:100E9400B9D114F4004F18BF4FF001088DE7C243D5
:100EA40002F007034FF47F621A41010702F47F62E4
:100EB4004FF0000348BF42F4804219462846FFF72A
:100EC40031FD00283FF479AF9DE7B1283BD0B2282B
:100ED40000F09380B32841D000F0FC03B42B92D0EF
:100EE40000F007020132012342F400221946284689
:100EF400FFF718FD00283FF460AF84E7C6284AD006
:100F0400C72854D000F0F803C02B63D0C82868D099
:100F1400C9287FF478AF3046FFF71CFF020300F0C6
:100F24000F0002F4702201300243012105232846F8
:100F3400FFF7F8FC00283FF440AF64E7B8F1000F76
:100F440018D0002060E73046FFF704FF024600286F
:100F54003FF459AF10F0F003C8D054E73046FFF720
:100F6400F9FE020300F00F03013302F470221A4366
:100F74000123BBE703AC43460E22414600942846B6
:100F8400FFF7EAFA009443460F2241462846FFF74A
:100F940009FB404638E73046FFF7DCFE020300F069
:100FA4000F03013302F470221A4303239EE73046F1
:100FB400FFF7D0FE024600283FF425AF10F0F003FF
:100FC4007FF421AF04212846FFF7ACFC00283FF44E
:100FD400F4AE18E700F00F020132032342F420229A
:100FE40084E73046FFF7B6FE00F0F00200F00F038E
:100FF4001032013343EA023297E700230DF10C0962
:101004000D221946CDF800902846FFF7A5FA304680
:10101400FFF7A0FE02064FF002040CD5039B00F07C
:101024007F00A040184403903046FFF793FE030668
:1010340004F10704F2D4039BCDF8009000F07F0282
:10104400A24003F501731A440023039219460D22AA
:101054002846FFF7A7FAB0E610B5C26C536884B00F
:101064004FF0030C08321C0208461B0E01A9019420
:1010740002928DF80CC08DF80D30FFF797FE04B086
:1010840010BD00BF08B5FFF78FFE806C08BD00BF20
:1010940008B5FFF789FEC06CC379023300EB830007
:1010A40008BD00BF022808D8044B33F8103023B120
:1010B400024A02EB80008268136170471828000816
:1010C4001EE0174B1B6803FB00F04FF0E023586150
:1010D40000204FF0E02300229A611A6942F00102D5
:1010E4001A614FF0E0231B6903F00113012BF8D0C0
:1010F4004FF0E0231A6922F001021A6100229A617A
:1011040060B13228DDD9064B1B68322202FB03F39F
:101114004FF0E0225361323880B2DAE7704700BF03
:101124009400002000B583B001210C4800F020FC9D
:10113400684600F019FD01238DF8073000228DF870
:1011440004208DF80620009328238DF80530694685
:10115400034800F0B7FC03B05DF804FB020018007C
:101164000008014070B582B004460F4E06EB8005BE
:101174000121686900F0FCFB684600F0F5FC0123DE
:101184008DF8073000238DF8043010238DF80630D5
:1011940036F81430009304238DF805306946A868A6
:1011A40000F090FC02B070BD1828000808B50420B7
:1011B40000F0E9FC074B1B68074AA2FB03239B0CC6
:1011C400064A536053684FF47A7101FB03F31360CA
:1011D40008BD00BF1000002083DE1B4394000020E4
:1011E40008B5FFF7E3FF0020FFF7BCFF0120FFF77E
:1011F400B9FF0220FFF7B6FF0020FFF753FF0120DD
:10120400FFF750FF0220FFF74DFFFFF78BFF08BDEC
:1012140008B500F06BFB0121084600F0BBFB00F0B1
:1012240096FB0028FBD001223B21022000F0F0FBBA
:10123400002000F031FC0121022000F0ABFB19205A
:1012440000F074FB0128FAD1002000F0C9FB04204F
:1012540000F0D6FB042000F0CBFB012000F010FCD2
:10126400022000F0FDFB00F003FC0228FBD100206B
:1012740000F006FC00F0C0FC08BD000008B5052025
:10128400FFF71EFF012000F00FFC0121084800F0C9
:1012940073FC012800D008BD064B1B78042B03D037
:1012A400044B04221A70F6E7024B01221A70F2E78B
:1012B40000080140000000207047FEE7FEE7FEE75B
:1012C400FEE7704770477047704708B5FFF7D6FFD1
:1012D40008BD000008B5FFF79BFFFFF781FF00F092
:1012E40089FA044801F0CCF84FF47A70FFF7E8FE6D
:1012F400F7E700BF38280008002103E00B4B5B58D8
:10130400435004310A480B4B42189A42F6D30A4A16
:1013140002E0002342F8043B084B9A42F9D300F060
:101324003DFC00F0B1FDFFF7D5FF7047402A0008EF
:101334000000002078000020780000205C010020DC
:10134400FEE700000A4B10B50446186818B183691B
:101354000BB900F0FBFC132C07D8064850F83420D6
:10136400013202D000EBC40010BD0020FCE700BF36
:1013740014000020AC000020F8B5044600F088FCFE
:1013840013260546002730463946ABBE06462E6076
:101394002046F8BD431C01D1FFF7EEBF704730B5BE
:1013A40085B0CDE901010392062401AD204629460A
:1013B400ABBE04462046FFF7EDFF05B030BD37B5A0
:1013C40015460191FFF7BEFF0199044638B900F0B4
:1013D4005FFC092303604FF0FF3003B030BD0068A9
:1013E4002A46FFF7DCFF431CF7D063682A1A13442C
:1013F40063601046F1E7F7B50C461646FFF7A2FF07
:10140400054640B900F044FC092303604FF0FF3463
:10141400204603B0F0BD022E03D900F039FC162398
:10142400F3E7012E12D14368E418F6D42B680A2698
:10143400CDE900346F4630463946ABBE06463046E9
:10144400FFF7A8FF0028E1DB6C60E1E7022EEDD195
:10145400036800930C266F4630463946ABBE0646F9
:101464003046FFF797FF431CD0D00444DEE7FFF774
:10147400C2BF30B585B0CDE901010392052401ADA9
:1014840020462946ABBE04462046FFF783FF05B03D
:1014940030BD37B515460191FFF754FF0199044655
:1014A40030B900F0F5FB092303604FF0FF3012E080
:1014B40000682A46FFF7DDFF0028F6DB62682B1A76
:1014C4001A44A842626005D1002003B0BDE8304050
:1014D400FFF752BF184603B030BD37B50224019060
:1014E40001AD20462946ABBE04462046FFF752FF15
:1014F40003B030BD38B50546FFF724FF044630B9C4
:1015040000F0C6FB092303604FF0FF3038BD013DF6
:10151400012D09D8094B9A681B699A4204D14FF0EE
:10152400FF3303600020F1E72068FFF7D6FF0028AF
:10153400ECD14FF0FF332360E8E700BFAC0000209C
:10154400012070470D4A116810B5034609B90C49CA
:1015540011601068694603448B4206D809490A4C55
:101564000968A14208D08B4206D900F091FB0C23F4
:1015740003604FF0FF3010BD1360FCE79C000020B7
:101584006001002004000020ADDEFECA70B50C46E8
:10159400FFF7D8FE054630B900F07AFB0923036053
:1015A4004FF0FF3070BD636843F4005363604FF441
:1015B4008063A3640C2630462946ABBE0546284604
:1015C400FFF7E8FE431C1CBF20610020EAE70B463E
:1015D40010B5002104465822184600F07CFC014650
:1015E4002046BDE81040FFF7D1BF38B50D4604468C
:1015F40058220021284600F06EFC2046002100F00D
:1016040011F8431C04460BD06B6843F401436B6030
:101614002946FFF7BBFF05462046FFF76BFF2C4624
:10162400204638BD2DE9F043DFF8A88097B007467F
:101634000E46002558F83540611C37D00135142D6D
:10164400F8D100F025FB182303604FF0FF343DE090
:10165400C6F3004440F20163B20748BF44F00204F9
:101664001E4218BF44F00404330748BF24F00404A6
:10167400384648BF44F008040097FEF7A1FDCDE9C1
:101684000140012420464946ABBE0446002C08DB39
:1016940048F8354008EBC5080023C8F804302C4648
:1016A40014E02046FFF768FE04460FE006F42063CA
:1016B400B3F5206FE946CBD149463846FFF795FF8D
:1016C4000130C5D000F0E4FA11230360204617B0BE
:1016D400BDE8F083AC0000202DE9F74306460F4631
:1016E4002A4800211546FFF79DFF2A46044600219B
:1016F400304600F0F0FB631C16D02046FFF722FEB4
:101704004FF00C09804648464146ABBE80464046F1
:10171400FFF740FE032802DDC31EAB4208DC20466F
:10172400FFF7E8FE4FF0FF34204603B0BDE8F08336
:1017340004220DEB02012046FFF741FE0328EEDDF3
:101744009DF80430532BEAD19DF80530482BE6D19F
:101754009DF80630462BE2D19DF80730422BDED1AE
:10176400012239462046FFF746FE0028D7DB2A46E9
:1017740031462046FFF723FE05462046FFF7BAFE12
:101784002846FFF707FE0446CEE700BF40280008BE
:1017940037B50A4D0A4C0021012201A829602260B4
:1017A400FFF79AFF002807DD9DF8043003F00102DB
:1017B40003F002032A60236003B030BD0800002058
:1017C4000C00002010B5044C2368002B01DAFFF74D
:1017D400DFFF206810BD00BF0800002010B5044CD6
:1017E4002368002B01DAFFF7D3FF206810BD00BF88
:1017F4000C0000202DE9F04F85B0DFF8B090CDF853
:10180400049003230024039301AF02940125284686
:101814003946ABBE0546DFF898802346204CC8F80D
:1018240000504FF0FF3244F833200133142BFAD127
:10183400FFF7D4FF1B4DD0B14FF0030A0423CDF8BA
:1018440004900126CDF80CA0029330463946ABBE75
:101854008346154BCDF80490C3F800B00823CDF8A7
:101864000CA0029330463946ABBE06462E602B6868
:10187400013302BF0C4B1B682B600026D8F80030E4
:1018840023606660FFF7AAFF30B1074B1B68C4E909
:1018940002362B68C4E9043605B0BDE8F08F00BFFA
:1018A400AC000020A0000020A8000020562800085A
:1018B400A400002070B5FFF745FD0925044620B9B2
:1018C40000F0E6F90560204670BD28462146ABBE0F
:1018D4000446012CF7D000F0DBF90024054613265A
:1018E40030462146ABBE06462E60ECE70E4B1A6826
:1018F40042F001021A601A689207FCD55A686FF325
:1019040001025A605A6812F00C0FC2F38101F9D136
:101914001A6822F0867222F480321A604FF41F0291
:10192400596019639A60704700100240030C03F178
:10193400804303F5043300F01F001A68012303FAFF
:1019440000F030EA02030CBF01200020704708B504
:1019540043F201011120FFF7E9FF012801D0013909
:10196400F8D11120FFF7E2FF431E5842584108BD49
:10197400030C03F1804303F50433012200F01F003C
:1019840002FA00F091421A680CBF104322EA0000E8
:101994001860704704281FD8DFE800F003090E130D
:1019A40019000E4B1A6861F300021A6070470B4B62
:1019B4001A6861F31042F8E7084B1A6861F3186279
:1019C400F3E7064B1A6A61F300021A627047034B8D
:1019D4005A6A61F300025A62704700BF0010024065
:1019E400024B5A6860F307125A60704700100240B5
:1019F400024B5A6860F30A225A6070470010024092
:101A0400024B5A6860F3CD225A60704700100240BE
:101A140010B5124B5C68A8B960F310445C60186B95
:101A240040F000701863586861F395405860586836
:101A3400C1F3011161F35E705860596862F3DF719C
:101A4400596010BD44F480345C60012858680CBFB0
:101A54006FF3514040F400305860E4E70010024056
:101A6400024B5A6860F301025A607047001002404A
:101A7400024B5868C0F38100704700BF0010024059
:101A8400044B5A6D01280CBF42F030026FF305126B
:101A94005A65704700100240024B5A6D60F30D32D4
:101AA4005A65704700100240054B196901EA0002AB
:101AB40030EA01010ABF5A6158615A61704700BF98
:101AC40000040140F0B50A688E7994B2032E2546CD
:101AD4001AD076B94979182901F00F0305D10461A8
:101AE400D2B29AB9FF2C27D8F0BD2829F8D1446185
:101AF400F6E70B79C97903F0040306F008063343CB
:101B040001F003010B43EBE70023E9E700210F2772
:101B140045FA01F2D6070BD506688A0007FA02FCDB
:101B240026EA0C060660066803FA02F232430260F3
:101B340001310829ECD1D5E7240A00210F2644FA03
:101B440001F2D2070BD545688A0006FA02F725EAA6
:101B540007054560456803FA02F22A4342600131F1
:101B64000829ECD1C0E70000024B4FF6FF72C0E930
:101B74000023704700040001836831EA03030CBFAB
:101B84000120002070474FF0E02304281A690CBF9D
:101B940042F0040222F004021A617047144AD2F897
:101BA400883043F47003C2F88830124B1A6842F04C
:101BB40001021A601A689207FCD55A686FF3010291
:101BC4005A605A6812F00C0FC2F38101F9D11A68F5
:101BD40022F0867222F480321A604FF41F02596098
:101BE40019639A60024B4FF000629A60704700BF1D
:101BF40000ED00E00010024038B5FFF739FF1E4940
:101C04001E4AB0B1022825D148684B684C6814F0CC
:101C1400C04FC0F30040C3F38343C4F3417501D103
:101C24000F2B19D1013303EB0513B8B914484343FF
:101C340006E04B6D98050DD50B6B9B010AD5114B36
:101C440013604B681049C3F30313C95C1368CB409A
:101C5400136038BD0D4BF3E70233E6E7486810F430
:101C6400003F18BF4C6D09481EBFC4F30134023451
:101C7400B0FBF4F0DBE700BF0010024010000020CE
:101C840000093D00006CDC025A28000800127A00AA
:101C9400014B1868704700BF14000020002310B5E2
:101CA4000446C0E90033C0E904338360818143669C
:101CB400C2818361194608225C3000F00CF9054B9F
:101CC4006362054BA362054BE362054B2462236305
:101CD40010BD00BF35200008572000088F200008E1
:101CE400B3200008014900F0AFB800BF0D2200087E
:101CF40070B568224D1E55430E4605F1740100F07F
:101D040013F9044640B10021C0E900160C30A0606C
:101D140005F1680200F0DFF8204670BD014800F0CC
:101D2400D8B800BF4D010020014800F0D3B800BF6F
:101D34004D010020014800F0CCB800BF4E01002046
:101D4400014800F0C7B800BF4E01002010B504469A
:101D5400FFF7F0FFA3691BB1BDE81040FFF7F0BF28
:101D6400C4E912332365134B134A1B68A262A342CE
:101D740004BF0123A361204600F020F860602046E0
:101D840000F01CF8A060204600F018F80022E06083
:101D940004216068FFF782FFA06801220921FFF790
:101DA4007DFFE06802221221FFF778FF0123A3617F
:101DB400D2E700BFCC280008E91C0008F8B50746A4
:101DC400FFF7ACFF1E4B1E68B36913B93046FFF72B
:101DD400BDFF4836D6E90134013B03D533680BB364
:101DE4003668F7E7B4F90C50D5B9164BE36004F143
:101DF4005800656600F06CF8FFF796FFC4E90155DA
:101E0400C4E904552560A5610822294604F15C0053
:101E140000F061F8C4E90D55C4E912552046F8BD37
:101E24006834D9E704213846FFF762FF044630607E
:101E34000028D5D1FFF778FF0C233B60EEE700BF05
:101E4400CC2800080100FFFF2DE9F8430646884628
:101E540000F148040027D4E90195B9F1010905D539
:101E64002468002CF7D13846BDE8F883AB89012BF0
:101E740007D9B5F90E30013303D029463046C0479F
:101E840007436835E9E7000070B50D4D0D4C641B40
:101E9400A4100026A64209D10B4D0C4C00F0AEFC58
:101EA400641BA4100026A64205D170BD55F8043B5E
:101EB40098470136EEE755F8043B98470136F2E7B8
:101EC400382A0008382A0008382A00083C2A000862
:101ED40070477047704702440346934200D17047ED
:101EE40003F8011BF9E7000070B50E4E0C4631688B
:101EF400054611B900F08CF830602146284600F000
:101F040087F8431C0AD0C41C24F00304A04207D061
:101F1400211A284600F07CF8013001D14FF0FF343B
:101F2400204670BD540100202DE9F041CD1C25F060
:101F3400030508350C2D38BF0C25002D074601DBA1
:101F4400A94205D90C233B6000263046BDE8F08148
:101F54002E4E00F0A7F933681C4634BB2946384698
:101F6400FFF7C2FF431C04464DD134682646002EB9
:101F740040D123683146384604EB030800F048F8A2
:101F840080453AD1216803356D1A25F003050835DB
:101F94000C2D38BF0C2529463846FFF7A5FF013024
:101FA4002BD023682B4423600EE02268521B1ED4DE
:101FB4000B2A16D96119A342256018BF59606368BA
:101FC40008BF316062514B60384604F10B0600F0E3
:101FD4006FF926F00706231DF21AB6D09B1BA350F7
:101FE400B3E76268A3420CBF32605A60ECE7234651
:101FF4006468B2E734467668B9E70C233B60384638
:1020040000F056F9A1E72560DEE700BF500100208B
:1020140038B5064D0023044608462B60FFF792FAB4
:10202400431C02D12B6803B1236038BD5801002042
:1020340010B50C46B1F90E1000F08CF90028ABBFB6
:10204400636DA3891B1823F48053ACBF6365A3811C
:1020540010BD2DE9F0411F468B89DB0505460C4672
:10206400164605D5B1F90E100223002200F008F936
:10207400A389B4F90E1023F48053A38132463B465E
:102084002846BDE8F04100F017B810B50C46B1F988
:102094000E1000F0F5F8431CA38915BF606523F406
:1020A400805343F48053A38118BFA38110BDB1F9B9
:1020B4000E1000F013B8000038B5074D044608466A
:1020C400114600222A601A46FFF7E3F9431C02D1A5
:1020D4002B6803B1236038BD5801002038B5064D84
:1020E4000023044608462B60FFF704FA431C02D180
:1020F4002B6803B1236038BD580100208A892DE97B
:10210400F041054610070C4658D44B68002B05DCFB
:102114000B6C002B02DC0020BDE8F081E66A002E87
:10212400F9D0002312F480522F682B6032D0606DF6
:10213400A3895A0705D56368C01A636B0BB1236C76
:10214400C01A00230246E66A216A2846B047431CA7
:10215400A38906D129681D292CD82A4ACA40D60742
:1021640028D500226260D9042269226004D5421C69
:1021740001D12B6803B96065616B2F600029CAD057
:1021840004F14403994202D0284600F097F8002055
:102194006063C1E7216A01232846B047411CC7D1C7
:1021A4002B68002BC4D01D2B01D0162B01D12F601E
:1021B400B1E7A38943F04003A381ADE70F69002F82
:1021C400A9D093070E6808BF4B690F6018BF00239E
:1021D400A6EB07088B60B8F1000F9CDD216AA66AA4
:1021E40043463A462846B047002806DCA38943F014
:1021F4004003A3814FF0FF308EE70744A8EB0008AB
:10220400E9E700BF0100402038B50B6905460C46DC
:1022140013B90025284638BD18B183690BB9FFF7F7
:1022240095FD144B9C421BD16C68B4F90C30002B07
:10223400EFD0626ED00704D4990502D4A06DFFF7E5
:1022440048FE28462146FFF759FF636EDA07054624
:10225400E0D4A3899B05DDD4A06DFFF73BFED9E74D
:10226400054B9C4201D1AC68DFE7044B9C4208BF9C
:10227400EC68DAE78C280008AC2800086C28000811
:1022840038B5074D04460846114600222A601A460E
:10229400FFF7EDF8431C02D12B6803B1236038BD6E
:1022A400580100200148FFF714BE00BF4C01002074
:1022B4000148FFF70FBE00BF4C01002037B50029CD
:1022C40044D051F8043C0190002BA1F10404B8BFA0
:1022D400E418FFF7E7FF1E4A0198136833B96360F7
:1022E400146003B0BDE83040FFF7E2BFA34208D951
:1022F400256861198B4201BF19685B68491921601F
:10230400EDE71A465B680BB1A342FAD91168551878
:10231400A5420BD1246821445418A3421160E0D192
:102324001C685B68536021441160DAE702D90C230E
:102334000360D6E7256861198B4204BF19685B689E
:10234400636004BF491921605460CAE703B030BD1B
:102354005001002038B5074D0446084611460022B6
:102364002A601A46FFF72BF8431C02D12B6803B1ED
:10237400236038BD5801002008B5062000F0B0F8ED
:10238400012000F011FA0A44914200F1FF3300D118
:10239400704710B511F8014B03F8014F9142F9D180
:1023A40010BD000070B50E46054618B183690BB91F
:1023B400FFF7CCFCAB69AC6813B92846FFF7C6FC41
:1023C4002C4B9C4220D16C68636EDB0705D4A38937
:1023D400980502D4A06DFFF77CFDA38919071DD5CC
:1023E4002369DBB1013EA36816F8011F013BA3601A
:1023F40039BB002B38DA22460A21284600F08CF833
:10240400013011D00A2511E01B4B9C4201D1AC686C
:10241400DAE71A4B9C4208BFEC68D5E72146284608
:1024240000F0CCF80028DDD04FF0FF35636EDA07FA
:1024340005D4A3899B0502D4A06DFFF74BFD284664
:1024440070BD002B04DAA2699A4206DC0A2904D082
:1024540023685A1C22601970C5E72246284600F0FA
:102464005BF80130BFD1DFE723680A255A1C2260DC
:102474001D70DBE78C280008AC2800086C280008D5
:10248400024B01461868FFF78DBF00BF14000020FF
:102494001F2938B504460D4604D9162303604FF0AE
:1024A400FF3038BD426C12B152F821304BB920468E
:1024B40000F030F82A4601462046BDE8384000F0D6
:1024C40017B8012B0AD0591C03D11623036001202D
:1024D400E7E7002442F82540284698470020E0E733
:1024E400024B01461868FFF7D3BF00BF1400002059
:1024F40038B5074D00230446084611462B6000F00A
:1025040071F9431C02D12B6803B1236038BD00BFAD
:1025140058010020FFF714B8F8B50E4614460546D6
:1025240018B183690BB9FFF711FC214B9C422BD1E5
:102534006C68A369A360A3891A072FD523696BB3B9
:1025440023692068C01A6369F6B28342374604DC03
:1025540021462846FFF758FE30BBA368013BA36021
:1025640023685A1C22601E7063690130834204D0C0
:10257400A389DB0706D50A2E04D121462846FFF796
:1025840043FE88B93846F8BD0A4B9C4201D1AC6879
:10259400CFE7094B9C4208BFEC68CAE721462846AE
:1025A40000F00CF80028CBD04FF0FF37EAE700BF6B
:1025B4008C280008AC2800086C280008324B70B541
:1025C4001D6806460C4625B1AB6913B92846FFF7CA
:1025D400BDFB2E4B9C420FD16C68A389B4F90C202F
:1025E40019072CD4DD0611D40923336042F04003CB
:1025F400A3814FF0FF303EE0254B9C4201D1AC68F3
:10260400EBE7244B9C4208BFEC68E6E7580712D579
:10261400616B41B104F14403994202D03046FFF7A3
:102624004DFE00236363A38923F02403A3810023C5
:10263400636023692360A38943F00803A3812369AA
:102644004BB9A38903F42073B3F5007F03D021466B
:10265400304600F047F8A089B4F90C2010F00103CB
:102664000AD00023A36063695B42A361236943B971
:1026740010F08000BAD170BD810758BF6369A360B0
:10268400F4E70020F7E700BF140000208C280008BE
:10269400AC2800086C28000870B50E46B1F90E107D
:1026A400002996B014461D4608DAB6F90C3000220B
:1026B4002A601A0610D44FF480630EE06A4600F0D4
:1026C40051F80028F1DB019A02F47042A2F500539C
:1026D4005A425A412A60EEE740230020236016B094
:1026E40070BD00008B8973B59D0706460C4607D55F
:1026F40004F14703236023610123636102B070BDC9
:1027040001AB6A46FFF7C8FF009905463046FFF75C
:102714000BFC48B9B4F90C309A05EFD423F0030349
:1027240043F00203A381E3E70D4BB362A389206066
:1027340043F08003A381009B6361019B20615BB133
:10274400B4F90E10304600F01FF828B1A38923F025
:10275400030343F00103A381A0890543A581CDE7C9
:10276400E91C000838B5074D002304460846114605
:102774002B60FEF72CFF431C02D12B6803B12360AE
:1027840038BD00BF5801002038B5064D002304466B
:1027940008462B60FFF78EF8431C02D12B6803B167
:1027A400236038BD58010020014608B5024A4FF0A5
:1027B400FF3000F003F800BF2600020007B5CDE9A2
:1027C4000021FEF7FFFF002814BF20241824FEF781
:1027D400F9FF20B16D4620462946ABBE0446009D54
:1027E400F9E70000062908B50CBF024A024AFFF7C0
:1027F400E5FF00BF2300020026000200F8B500BF79
:10280400F8BC08BC9E467047F8B500BFF8BC08BCCD
:042814009E46704725
:102818000020004000800000001401400014014026
:1028280000140140050018000500180005001800F4
:10283800736B796E657421003A73656D69686F739F
:1028480074696E672D6665617475726573003A7494
:1028580074000000000000000000010203040607E5
:10286800080900000000000000000000000000004F
:102878000000000000000000000000000000000050
:102888000000000000000000000000000000000040
:102898000000000000000000000000000000000030
:1028A8000000000000000000000000000000000020
:1028B8000000000000000000000000000000000010
:0828C8000000000018000020D0
:1028D00008B10181B0B000840000000008B101819E
:1028E000B0B000840000000008B10181B0B00084E5
:1028F0000000000008B10181B0B0008400000000B9
:1029000008B10181B0B000840000000008B101816D
:10291000B0B000840000000008B10181B0B00084B4
:102920000000000008B10181B0B000840000000088
:10293000A4D8FF7F0100000034D9FF7FB0A9028036
:10294000C8D9FF7FB0B0A88018DAFF7F010000006F
:1029500024DAFF7FB0B0AA8058DAFF7FAE71B28070
:102960001CDBFF7F0100000018DBFF7FAB3F3880DE
:1029700078DBFF7F0100000080DBFF7FB0B0AA8022
:10298000BCDBFF7F0100000068DCFF7FAA0DB28086
:10299000E4DCFF7FB0AF088084DFFF7F0100000030
:1029A00088DFFF7FAD3F028004E2FF7F010000006F
:1029B000E0E3FF7F00840480F4E3FF7F0100000078
:1029C000F0E3FF7FB0AD048094E6FF7FB0A8038002
:1029D000B8E6FF7F44FFFF7FBCE6FF7F48FFFF7F35
:1029E000C8E6FF7F0100000040E7FF7F008402800F
:1029F00078E7FF7FB0AA0180B8E7FF7FD4FEFF7FB2
:102A0000E4E7FF7FD8FEFF7F0CE8FF7FDCFEFF7F5F
:102A100070E8FF7FE0FEFF7FA4E8FF7F0100000079
:102A2000AEE8FF7FDCFEFF7FB0E8FF7FE0FEFF7FC8
:082A3000CCE8FF7F010000006B
:042A3800A9010008E8
:042A3C008501000808
:102A400001000000ADDEFECAFFFFFFFFFFFFFFFF3A
:102A500000127A0018000020000000008C280008F6
:102A6000AC2800086C2800080000000000000000EE
:102A70000000000000000000000000000000000056
:102A80000000000000000000000000000000000046
:102A90000000000000000000000000000000000036
:102AA0000000000000000000000000000000000026
:082AB00000000000000000001E
:04000005080012FDE0
:00000001FF
