:020000040800F2
:100000000080012075080008D1070008D307000808
:10001000D5070008D7070008D9070008000000002E
:10002000000000000000000000000000DB070008E6
:10003000DD07000800000000DF070008E1070008F6
:10004000BD080008BD080008BD080008BD0800087C
:10005000BD080008BD080008E3070008BD08000847
:10006000BD080008BD080008BD080008BD0800085C
:10007000BD080008BD080008BD080008BD0800084C
:10008000BD080008BD080008BD080008BD0800083C
:10009000BD080008BD080008BD080008BD0800082C
:1000A000BD080008BD080008BD080008BD0800081C
:1000B000BD080008BD080008BD080008BD0800080C
:1000C000BD080008BD080008BD080008BD080008FC
:1000D000BD080008BD080008BD080008BD080008EC
:1000E000BD080008BD080008BD080008BD080008DC
:1000F000BD080008BD080008BD080008BD080008CC
:10010000BD080008BD080008BD080008BD080008BB
:10011000BD080008BD080008BD080008BD080008AB
:10012000BD080008BD080008BD080008BD0800089B
:10013000BD080008BD080008BD080008BD0800088B
:1001400000000000000000000000000000000000AF
:10015000BD080008BD080008BD080008BD0800086B
:10016000BD080008BD080008BD080008BD0800085B
:10017000BD080008BD080008BD080008BD0800084B
:04018000BD080008AE
:1001840010B5054C237833B9044B13B10448AFF3CD
:1001940000800123237010BD7800002000000000BF
:1001A400B018000808B5034B1BB103490348AFF36B
:1001B400008008BD000000007C000020B01800088A
:1001C400034613F8012B002AFBD1181A0138704793
:1001D400104A136843F0010313600E4B1B6813F0BD
:1001E400020FFAD00B4B5A686FF301025A60094BA5
:1001F4005B6813F00C0FFAD1064B002159601A68A2
:1002040022F0867222F480321A6019634FF41F02BE
:100214009A60704700100240030C03F1804303F519
:1002240004331A6800F01F00012303FA00F030EAD7
:10023400020301D0002070470120704710B500244C
:100244001120FFF7E9FF012804D0B4F5405F01D283
:100254000134F5E71120FFF7DFFF012800D000206B
:1002640010BD01290ED0030C03F1804303F50433C0
:100274001A6800F01F00012101FA00F022EA0000D0
:1002840018607047030C03F1804303F504331A68C4
:1002940000F01F0001FA00F01043186070470000DE
:1002A400042821D8DFE800F003090F151B000F4BC9
:1002B4001A6861F300021A6070470C4B1A6861F304
:1002C40010421A607047094B1A6861F318621A6089
:1002D4007047064B1A6A61F300021A627047034BB7
:1002E4005A6A61F300025A62704700BF001002406C
:1002F400024B5A6860F307125A60704700100240BC
:10030400024B5A6860F30A225A6070470010024098
:10031400024B5A6860F3CD225A60704700100240C5
:100324008446A0B9144B58686FF310405860124BC0
:10033400586861F395405860C1F30111586861F33E
:100344005E705860596862F3DF71596070470A48FB
:10035400436843F480334360BCF1010F05D0064881
:10036400436843F400334360E1E7034640686FF3B6
:1003740051405860DBE700BF00100240024B5A684E
:1003840060F301025A60704700100240024B586843
:10039400C0F38100704700BF00100240012805D05F
:1003A400054B5A6D6FF305125A657047024A536D37
:1003B40043F030035365704700100240024B5A6DFE
:1003C40060F30D325A65704700100240014B5861CA
:1003D400704700BF0004014030B50A681FFA82FE6E
:1003E4008B79032B18D063B94B7903F00F01182BC9
:1003F40004D0282B11D193B243610EE0C0F810E071
:100404000BE00D79CC7903F0080105F004031943DE
:1004140004F00303194300E0002195B212F0FF0F2A
:100424001DD1BEF1FF0F33D94FEA1E2E002319E070
:100434000133072BF5D845FA03F212F0010FF7D078
:1004440004689A004FF00F0C0CFA02FC24EA0C0426
:100454000460046801FA02F222430260E8E7002320
:10046400E7E70133072B13D84EFA03F212F0010F1A
:10047400F7D044689A004FF00F0C0CFA02FC24EAFF
:100484000C044460446801FA02F222434260E8E743
:1004940030BD4FF6FF73036000238371037104239F
:1004A40043710123C3717047836831EA030301D0A8
:1004B4000020704701207047042806D04FF0E02246
:1004C400136923F00403136170474FF0E0221369AA
:1004D40043F004031361704708B5FFF757FF012881
:1004E40018D0022824D018B12B4B2C4A1A6014E0DF
:1004F4002B4B5B6D13F4007F08D0294B1B6B13F05F
:10050400007F03D0244B274A1A6006E0224B234A7B
:100514001A6002E0204B214A1A60214B5B68C3F346
:100524000313214AD15C1C4A1368CB40136008BDF5
:100534001B494A68C2F300424B68C3F383434968CA
:10054400C1F3417011F0C04F03D10F2B01D002331E
:1005540002E003EB001301332AB9144A02FB03F34C
:100564000D4A1360D9E70E4A526812F4003F0CD0CA
:100574000B4A526DC2F30132911C084AB2FBF1F2EC
:1005840002FB03F3044A1360C7E7044A02FB03F3C4
:10059400014A1360C1E700BF0000002000127A0086
:1005A40000100240006CDC02C818000800093D007D
:1005B40008B5FFF70DFE01210846FFF771FEFFF7AE
:1005C4003DFE0028FBD001223B210220FFF7A8FEBC
:1005D4000020FFF7F3FE01210220FFF761FE19203E
:1005E400FFF71AFE0128FAD10020FFF781FE04204C
:1005F400FFF78EFE0420FFF783FE0120FFF7CEFEF7
:100604000220FFF7BBFEFFF7C1FE0228FBD100204A
:10061400FFF7C4FEFFF760FF08BD000000B583B01C
:1006240001210C48FFF71DFE6846FFF732FF012346
:100634008DF8073000228DF804208DF806200093F1
:1006440028238DF8053069460348FFF7C5FE03B03B
:100654005DF804FB020018000008014070B582B088
:100664000546104C04EB800601213069FFF7F9FDC3
:100674006846FFF70EFF01238DF8073000238DF83D
:10068400043010238DF8063004EB4504A38B00934B
:1006940004238DF805306946706AFFF79DFE02B0A9
:1006A40070BD00BFC8180008022809D8054B03EB29
:1006B40040039B8B23B1034A02EB8000426A13611F
:1006C400704700BFC818000808B50420FFF7F4FEFF
:1006D400074B1B68074AA2FB03239B0C064A1360C3
:1006E40013684FF47A7101FB03F3536008BD00BF34
:1006F4000000002083DE1B439400002008B5FFF7B0
:10070400E3FF0020FFF7AAFF0120FFF7A7FF022065
:10071400FFF7A4FF0020FFF7C7FF0120FFF7C4FF86
:100724000220FFF7C1FFFFF779FF08BD1EE0174B5A
:100734005B6803FB00F04FF0E023586100204FF0AA
:10074400E02300229A611A6942F001021A614FF013
:10075400E0231B6903F00113012BF8D04FF0E023D1
:100764001A6922F001021A6100229A6160B13228EA
:10077400DDD9064B5B68322202FB03F34FF0E02223
:100784005361323880B2DAE7704700BF940000202A
:1007940008B50520FFF7CAFF0120FFF717FE012166
:1007A4000848FFF781FE012800D008BD064B1B79DD
:1007B400042B03D0044B04221A71F6E7024B0122E6
:1007C4001A71F2E700080140000000207047FEE7BC
:1007D400FEE7FEE7FEE7704770477047704708B5CD
:1007E400FFF7D6FF08BD000008B5FFF7E1FEFFF7ED
:1007F40085FF00F0ADFA044800F008FF4FF47A706A
:10080400FFF794FFF7E700BFF8180008164AD2F87C
:10081400883043F47003C2F88830144A136843F0F4
:1008240001031360114B1B6813F0020FFAD00F4B36
:100834005A686FF301025A600C4B5B6813F00C0F9B
:10084400FAD10A4B002159601A6822F0867222F408
:1008540080321A6019634FF41F029A60024B4FF002
:1008640000629A60704700BF00ED00E00010024093
:10087400002103E00B4B5B58435004310A480B4BF7
:1008840042189A42F6D30A4A02E0002342F8043B93
:10089400084B9A42F9D3FFF7B9FF00F0D1FBFFF7F9
:1008A400A3FF70478819000800000020780000208A
:1008B400780000205C010020FEE700000A4B10B520
:1008C4000446186818B183690BB900F01BFB132C9C
:1008D40007D8064850F83420013202D000EBC40097
:1008E40010BD0020FCE700BF14000020AC00002075
:1008F400F8B5044600F0A8FA13260546002730464A
:100904003946ABBE06462E602046F8BD431C01D1D5
:10091400FFF7EEBF704730B585B0CDE90101039212
:10092400062401AD20462946ABBE04462046FFF707
:10093400EDFF05B030BD37B515460191FFF7BEFF99
:100944000199044638B900F07FFA092303604FF097
:10095400FF3003B030BD00682A46FFF7DCFF431CBC
:10096400F7D063682A1A134463601046F1E7F7B5B9
:100974000C461646FFF7A2FF054640B900F064FA9C
:10098400092303604FF0FF34204603B0F0BD022E6C
:1009940003D900F059FA1623F3E7012E12D1436864
:1009A400E418F6D42B680A26CDE900346F463046A5
:1009B4003946ABBE06463046FFF7A8FF0028E1DB08
:1009C4006C60E1E7022EEDD1036800930C266F46BC
:1009D40030463946ABBE06463046FFF797FF431C08
:1009E400D0D00444DEE7FFF7C2BF30B585B0CDE90F
:1009F40001010392052401AD20462946ABBE0446FD
:100A04002046FFF783FF05B030BD37B51546019189
:100A1400FFF754FF0199044630B900F015FA092391
:100A240003604FF0FF3012E000682A46FFF7DDFF55
:100A34000028F6DB62682B1A1A44A842626005D1CA
:100A4400002003B0BDE83040FFF752BF184603B0A2
:100A540030BD37B50224019001AD20462946ABBE16
:100A640004462046FFF752FF03B030BD38B50546B3
:100A7400FFF724FF044630B900F0E6F909230360C8
:100A84004FF0FF3038BD013D012D09D8094B9A685C
:100A94001B699A4204D14FF0FF3303600020F1E751
:100AA4002068FFF7D6FF0028ECD14FF0FF33236016
:100AB400E8E700BFAC0000200D4A116810B50346FA
:100AC40009B90C4911601068694603448B4206D881
:100AD40009490A4C0968A14208D08B4206D900F0A2
:100AE400B3F90C2303604FF0FF3010BD1360FCE733
:100AF4009C0000206001002008000020ADDEFECA3A
:100B040070B50C46FFF7DAFE054630B900F09CF9E3
:100B1400092303604FF0FF3070BD636843F4005352
:100B240063604FF48063A3640C2630462946ABBE51
:100B340005462846FFF7EAFE431C1CBF206100203F
:100B4400EAE70B4610B5002104465822184600F087
:100B54009EFA01462046BDE81040FFF7D1BF38B5E4
:100B64000D46044658220021284600F090FA2046FB
:100B7400002100F011F8431C04460BD06B6843F4C9
:100B840001436B602946FFF7BBFF05462046FFF78C
:100B94006DFF2C46204638BD2DE9F043DFF8A880D0
:100BA40097B007460E46002558F83540611C37D0EB
:100BB4000135142DF8D100F047F9182303604FF0E4
:100BC400FF343DE0C6F3004440F20163B20748BF7E
:100BD40044F002041E4218BF44F00404330748BF23
:100BE40024F00404384648BF44F008040097FFF793
:100BF400E7FACDE90140012420464946ABBE04464C
:100C0400002C08DB48F8354008EBC5080023C8F879
:100C140004302C4614E02046FFF76AFE04460FE039
:100C240006F42063B3F5206FE946CBD14946384634
:100C3400FFF795FF0130C5D000F006F911230360DA
:100C4400204617B0BDE8F083AC0000202DE9F7433F
:100C540006460F462A4800211546FFF79DFF2A46FF
:100C640004460021304600F012FA631C16D02046D8
:100C7400FFF724FE4FF00C09804648464146ABBEC0
:100C840080464046FFF742FE032802DDC31EAB4206
:100C940008DC2046FFF7EAFE4FF0FF34204603B09D
:100CA400BDE8F08304220DEB02012046FFF743FE6A
:100CB4000328EEDD9DF80430532BEAD19DF805306E
:100CC400482BE6D19DF80630462BE2D19DF807303B
:100CD400422BDED1012239462046FFF748FE002888
:100CE400D7DB2A4631462046FFF725FE0546204637
:100CF400FFF7BCFE2846FFF709FE0446CEE700BF17
:100D04000019000837B50A4D0A4C0021012201A838
:100D140029602260FFF79AFF002807DD9DF8043060
:100D240003F0010203F002032A60236003B030BD24
:100D34000C0000201000002010B5044C2368002B88
:100D440001DAFFF7DFFF206810BD00BF10000020AC
:100D54002DE9F04F85B0DFF8B090CDF8049003236F
:100D64000024039301AF0294012528463946ABBE03
:100D74000546DFF898802346204CC8F800504FF011
:100D8400FF3244F833200133142BFAD1FFF7D4FF98
:100D94001B4DD0B14FF0030A0423CDF80490012673
:100DA400CDF80CA0029330463946ABBE8346154BB2
:100DB400CDF80490C3F800B00823CDF80CA002933A
:100DC40030463946ABBE06462E602B68013302BF5F
:100DD4000C4B1B682B600026D8F80030236066603B
:100DE400FFF7AAFF30B1074B1B68C4E902362B6832
:100DF400C4E9043605B0BDE8F08F00BFAC000020A4
:100E0400A0000020A800002016190008A40000205B
:100E140070B5FFF753FD0925044620B900F014F816
:100E24000560204670BD28462146ABBE0446012C11
:100E3400F7D000F009F80024054613263046214671
:100E4400ABBE06462E60ECE7014B1868704700BF46
:100E540014000020002310B50446C0E90033C0E9A3
:100E64000433836081814366C28183611946082209
:100E74005C3000F00CF9054B6362054BA362054B33
:100E8400E362054B2462236310BD00BFED1100082B
:100E94000F120008471200086B120008014900F005
:100EA400AFB800BFC513000870B568224D1E554386
:100EB4000E4605F1740100F013F9044640B1002117
:100EC400C0E900160C30A06005F1680200F0DFF8FC
:100ED400204670BD014800F0D8B800BF4D01002085
:100EE400014800F0D3B800BF4D010020014800F0D4
:100EF400CCB800BF4E010020014800F0C7B800BFC5
:100F04004E01002010B50446FFF7F0FFA3691BB1A2
:100F1400BDE81040FFF7F0BFC4E912332365134B5B
:100F2400134A1B68A262A34204BF0123A3612046A3
:100F340000F020F86060204600F01CF8A060204615
:100F440000F018F80022E06004216068FFF782FFD7
:100F5400A06801220921FFF77DFFE0680222122127
:100F6400FFF778FF0123A361D2E700BF7C190008D3
:100F7400A10E0008F8B50746FFF7ACFF1E4B1E682C
:100F8400B36913B93046FFF7BDFF4836D6E90134DB
:100F9400013B03D533680BB33668F7E7B4F90C505B
:100FA400D5B9164BE36004F15800656600F06CF89F
:100FB400FFF796FFC4E90155C4E904552560A5610E
:100FC4000822294604F15C0000F061F8C4E90D55DB
:100FD400C4E912552046F8BD6834D9E704213846DF
:100FE400FFF762FF044630600028D5D1FFF778FF91
:100FF4000C233B60EEE700BF7C1900080100FFFFF3
:101004002DE9F8430646884600F148040027D4E950
:101014000195B9F1010905D52468002CF7D13846AA
:10102400BDE8F883AB89012B07D9B5F90E3001333C
:1010340003D029463046C04707436835E9E7000036
:1010440070B50D4D0D4C641BA4100026A64209D1A9
:101054000B4D0C4C00F02AFC641BA4100026A64285
:1010640005D170BD55F8043B98470136EEE755F8B5
:10107400043B98470136F2E78019000880190008FC
:1010840080190008841900087047704770470244AB
:101094000346934200D1704703F8011BF9E70000AF
:1010A40070B50E4E0C463168054611B900F08CF847
:1010B40030602146284600F087F8431C0AD0C41C3F
:1010C40024F00304A04207D0211A284600F07CF83B
:1010D400013001D14FF0FF34204670BD540100208F
:1010E4002DE9F041CD1C25F0030508350C2D38BF42
:1010F4000C25002D074601DBA94205D90C233B60D2
:1011040000263046BDE8F0812E4E00F0A7F9336882
:101114001C4634BB29463846FFF7C2FF431C04462D
:101124004DD134682646002E40D1236831463846D6
:1011340004EB030800F048F880453AD121680335F0
:101144006D1A25F0030508350C2D38BF0C252946EA
:101154003846FFF7A5FF01302BD023682B442360CA
:101164000EE02268521B1ED40B2A16D96119A34221
:10117400256018BF5960636808BF316062514B60D5
:10118400384604F10B0600F06FF926F00706231D1C
:10119400F21AB6D09B1BA350B3E76268A3420CBFFC
:1011A40032605A60ECE723466468B2E734467668F6
:1011B400B9E70C233B60384600F056F9A1E72560F7
:1011C400DEE700BF5001002038B5064D0023044679
:1011D40008462B60FFF770FC431C02D12B6803B157
:1011E400236038BD5801002010B50C46B1F90E102B
:1011F40000F08CF90028ABBF636DA3891B1823F49E
:101204008053ACBF6365A38110BD2DE9F0411F4637
:101214008B89DB0505460C46164605D5B1F90E103B
:101224000223002200F008F9A389B4F90E1023F474
:101234008053A38132463B462846BDE8F04100F086
:1012440017B810B50C46B1F90E1000F0F5F8431CB0
:10125400A38915BF606523F4805343F48053A381AD
:1012640018BFA38110BDB1F90E1000F013B800002F
:1012740038B5074D04460846114600222A601A462E
:10128400FFF7C3FB431C02D12B6803B1236038BDB5
:101294005801002038B5064D0023044608462B604B
:1012A400FFF7E4FB431C02D12B6803B1236038BD74
:1012B400580100208A892DE9F041054610070C46A3
:1012C40058D44B68002B05DC0B6C002B02DC00208F
:1012D400BDE8F081E66A002EF9D0002312F48052B2
:1012E4002F682B6032D0606DA3895A0705D56368D7
:1012F400C01A636B0BB1236CC01A00230246E66A62
:10130400216A2846B047431CA38906D129681D29B0
:101314002CD82A4ACA40D60728D500226260D904AC
:101324002269226004D5421C01D12B6803B960658F
:10133400616B2F600029CAD004F14403994202D0A2
:10134400284600F097F800206063C1E7216A012372
:101354002846B047411CC7D12B68002BC4D01D2B95
:1013640001D0162B01D12F60B1E7A38943F04003CC
:10137400A381ADE70F69002FA9D093070E6808BFBA
:101384004B690F6018BF0023A6EB07088B60B8F108
:10139400000F9CDD216AA66A43463A462846B047B8
:1013A400002806DCA38943F04003A3814FF0FF30FB
:1013B4008EE70744A8EB0008E9E700BF01004020DE
:1013C40038B50B6905460C4613B90025284638BDC7
:1013D40018B183690BB9FFF795FD144B9C421BD1DF
:1013E4006C68B4F90C30002BEFD0626ED00704D4D3
:1013F400990502D4A06DFFF748FE28462146FFF761
:1014040059FF636EDA070546E0D4A3899B05DDD452
:10141400A06DFFF73BFED9E7054B9C4201D1AC68B8
:10142400DFE7044B9C4208BFEC68DAE73C1900088C
:101434005C1900081C19000838B5074D0446084615
:10144400114600222A601A46FFF7CDFA431C02D146
:101454002B6803B1236038BD580100200148FFF711
:1014640014BE00BF4C0100200148FFF70FBE00BFAF
:101474004C01002037B5002944D051F8043C0190B8
:10148400002BA1F10404B8BFE418FFF7E7FF1E4ADC
:101494000198136833B96360146003B0BDE8304049
:1014A400FFF7E2BFA34208D9256861198B4201BF47
:1014B40019685B6849192160EDE71A465B680BB14E
:1014C400A342FAD911685518A5420BD124682144C6
:1014D4005418A3421160E0D11C685B685360214436
:1014E4001160DAE702D90C230360D6E72568611995
:1014F4008B4204BF19685B68636004BF49192160AB
:101504005460CAE703B030BD5001002038B5074D20
:1015140004460846114600222A601A46FFF70BFAD1
:10152400431C02D12B6803B1236038BD580100204D
:1015340070B50E46054618B183690BB9FFF7E2FC96
:10154400AB69AC6813B92846FFF7DCFC2C4B9C4212
:1015540020D16C68636EDB0705D4A389980502D497
:10156400A06DFFF792FDA38919071DD52369DBB18F
:10157400013EA36816F8011F013BA36039BB002B91
:1015840038DA22460A21284600F048F8013011D002
:101594000A2511E01B4B9C4201D1AC68DAE71A4BD7
:1015A4009C4208BFEC68D5E72146284600F088F83D
:1015B4000028DDD04FF0FF35636EDA0705D4A38928
:1015C4009B0502D4A06DFFF761FD284670BD002B7A
:1015D40004DAA2699A4206DC0A2904D023685A1C58
:1015E40022601970C5E72246284600F017F801303A
:1015F400BFD1DFE723680A255A1C22601D70DBE790
:101604003C1900085C1900081C190008024B01462B
:101614001868FFF78DBF00BF14000020F8B50E4610
:101624001446054618B183690BB9FFF76BFC214BCF
:101634009C422BD16C68A369A360A3891A072FD598
:1016440023696BB323692068C01A6369F6B28342C5
:10165400374604DC21462846FFF7B2FE30BBA368B8
:10166400013BA36023685A1C22601E706369013029
:10167400834204D0A389DB0706D50A2E04D1214670
:101684002846FFF79DFE88B93846F8BD0A4B9C42B0
:1016940001D1AC68CFE7094B9C4208BFEC68CAE7AC
:1016A4002146284600F00CF80028CBD04FF0FF3735
:1016B400EAE700BF3C1900085C1900081C1900087F
:1016C400324B70B51D6806460C4625B1AB6913B99B
:1016D4002846FFF717FC2E4B9C420FD16C68A38958
:1016E400B4F90C2019072CD4DD0611D40923336076
:1016F40042F04003A3814FF0FF303EE0254B9C4273
:1017040001D1AC68EBE7244B9C4208BFEC68E6E7E8
:10171400580712D5616B41B104F14403994202D0D8
:101724003046FFF7A7FE00236363A38923F0240355
:10173400A3810023636023692360A38943F0080322
:10174400A38123694BB9A38903F42073B3F5007F04
:1017540003D02146304600F047F8A089B4F90C20A4
:1017640010F001030AD00023A36063695B42A36104
:10177400236943B910F08000BAD170BD810758BF06
:101784006369A360F4E70020F7E700BF14000020BA
:101794003C1900085C1900081C19000870B50E46B5
:1017A400B1F90E10002996B014461D4608DAB6F9B0
:1017B4000C3000222A601A0610D44FF480630EE025
:1017C4006A4600F051F80028F1DB019A02F47042F5
:1017D400A2F500535A425A412A60EEE74023002002
:1017E400236016B070BD00008B8973B59D07064653
:1017F4000C4607D504F14703236023610123636189
:1018040002B070BD01AB6A46FFF7C8FF00990546F8
:101814003046FFF765FC48B9B4F90C309A05EFD4AB
:1018240023F0030343F00203A381E3E70D4BB36208
:10183400A389206043F08003A381009B6361019B23
:1018440020615BB1B4F90E10304600F01FF828B1E6
:10185400A38923F0030343F00103A381A089054373
:10186400A581CDE7A10E000838B5074D0023044635
:10187400084611462B60FFF764F9431C02D12B681C
:1018840003B1236038BD00BF5801002038B5064DB0
:101894000023044608462B60FFF7BAFA431C02D122
:1018A4002B6803B1236038BD58010020F8B500BF90
:1018B400F8BC08BC9E467047F8B500BFF8BC08BC2D
:0418C4009E46704785
:1018C80000000000000000000102030406070809E8
:1018D8000500180005001800050018000020004049
:1018E8000080000000140140001401400014014071
:1018F800736B796E657421003A73656D69686F73EF
:1019080074696E672D6665617475726573003A74E3
:10191800740000000000000000000000000000004B
:1019280000000000000000000000000000000000AF
:10193800000000000000000000000000000000009F
:10194800000000000000000000000000000000008F
:10195800000000000000000000000000000000007F
:10196800000000000000000000000000000000006F
:0819780000000000180000202F
:04198000A9010008B1
:0419840085010008D1
:1019880000127A0001000000ADDEFECAFFFFFFFF73
:10199800FFFFFFFF18000020000000003C190008AE
:1019A8005C1900081C190008000000000000000075
:1019B800000000000000000000000000000000001F
:1019C800000000000000000000000000000000000F
:1019D80000000000000000000000000000000000FF
:1019E80000000000000000000000000000000000EF
:0819F8000000000000000000E7
:040000050800087572
:00000001FF
